{
	"data": {
		"bytecode": {
			"linkReferences": {},
			"object": "608060405234801561000f575f5ffd5b50604051610f69380380610f698339818101604052810190610031919061028e565b815f5f6101000a81548173ffffffffffffffffffffffffffffffffffffffff021916908373ffffffffffffffffffffffffffffffffffffffff160217905550806001908161007f91906104f8565b50600382908060018154018082558091505060019003905f5260205f20015f9091909190916101000a81548173ffffffffffffffffffffffffffffffffffffffff021916908373ffffffffffffffffffffffffffffffffffffffff16021790555050506105c7565b5f604051905090565b5f5ffd5b5f5ffd5b5f73ffffffffffffffffffffffffffffffffffffffff82169050919050565b5f610121826100f8565b9050919050565b61013181610117565b811461013b575f5ffd5b50565b5f8151905061014c81610128565b92915050565b5f5ffd5b5f5ffd5b5f601f19601f8301169050919050565b7f4e487b71000000000000000000000000000000000000000000000000000000005f52604160045260245ffd5b6101a08261015a565b810181811067ffffffffffffffff821117156101bf576101be61016a565b5b80604052505050565b5f6101d16100e7565b90506101dd8282610197565b919050565b5f67ffffffffffffffff8211156101fc576101fb61016a565b5b6102058261015a565b9050602081019050919050565b8281835e5f83830152505050565b5f61023261022d846101e2565b6101c8565b90508281526020810184848401111561024e5761024d610156565b5b610259848285610212565b509392505050565b5f82601f83011261027557610274610152565b5b8151610285848260208601610220565b91505092915050565b5f5f604083850312156102a4576102a36100f0565b5b5f6102b18582860161013e565b925050602083015167ffffffffffffffff8111156102d2576102d16100f4565b5b6102de85828601610261565b9150509250929050565b5f81519050919050565b7f4e487b71000000000000000000000000000000000000000000000000000000005f52602260045260245ffd5b5f600282049050600182168061033657607f821691505b602082108103610349576103486102f2565b5b50919050565b5f819050815f5260205f209050919050565b5f6020601f8301049050919050565b5f82821b905092915050565b5f600883026103ab7fffffffffffffffffffffffffffffffffffffffffffffffffffffffffffffffff82610370565b6103b58683610370565b95508019841693508086168417925050509392505050565b5f819050919050565b5f819050919050565b5f6103f96103f46103ef846103cd565b6103d6565b6103cd565b9050919050565b5f819050919050565b610412836103df565b61042661041e82610400565b84845461037c565b825550505050565b5f5f905090565b61043d61042e565b610448818484610409565b505050565b5b8181101561046b576104605f82610435565b60018101905061044e565b5050565b601f8211156104b0576104818161034f565b61048a84610361565b81016020851015610499578190505b6104ad6104a585610361565b83018261044d565b50505b505050565b5f82821c905092915050565b5f6104d05f19846008026104b5565b1980831691505092915050565b5f6104e883836104c1565b9150826002028217905092915050565b610501826102e8565b67ffffffffffffffff81111561051a5761051961016a565b5b610524825461031f565b61052f82828561046f565b5f60209050601f831160018114610560575f841561054e578287015190505b61055885826104dd565b8655506105bf565b601f19841661056e8661034f565b5f5b8281101561059557848901518255600182019150602085019450602081019050610570565b868310156105b257848901516105ae601f8916826104c1565b8355505b6001600288020188555050505b505050505050565b610995806105d45f395ff3fe608060405260043610610073575f3560e01c80636d218e481161004d5780636d218e4814610107578063d3650fb814610143578063ed88c68e1461017f578063f4374aea1461018957610082565b806302d05d3f146100865780630724fda9146100b05780634051ddac146100da57610082565b36610082576100806101c5565b005b5f5ffd5b348015610091575f5ffd5b5061009a6103a4565b6040516100a791906105c2565b60405180910390f35b3480156100bb575f5ffd5b506100c46103c8565b6040516100d1919061064b565b60405180910390f35b3480156100e5575f5ffd5b506100ee610454565b6040516100fe9493929190610683565b60405180910390f35b348015610112575f5ffd5b5061012d600480360381019061012891906106f4565b610491565b60405161013a9190610739565b60405180910390f35b34801561014e575f5ffd5b506101696004803603810190610164919061077c565b610533565b60405161017691906105c2565b60405180910390f35b6101876101c5565b005b348015610194575f5ffd5b506101af60048036038101906101aa91906106f4565b61056e565b6040516101bc91906107a7565b60405180910390f35b5f3411610207576040517f08c379a00000000000000000000000000000000000000000000000000000000081526004016101fe90610830565b60405180910390fd5b3460025f3373ffffffffffffffffffffffffffffffffffffffff1673ffffffffffffffffffffffffffffffffffffffff1681526020019081526020015f205f828254610253919061087b565b925050819055503460045f82825461026b919061087b565b92505081905550660110d9316ec00060025f3373ffffffffffffffffffffffffffffffffffffffff1673ffffffffffffffffffffffffffffffffffffffff1681526020019081526020015f2054101580156102cc57506102ca33610491565b155b1561036957600333908060018154018082558091505060019003905f5260205f20015f9091909190916101000a81548173ffffffffffffffffffffffffffffffffffffffff021916908373ffffffffffffffffffffffffffffffffffffffff1602179055507f8aa8ad4b7d42f7c217d8d03dce49e363e9b44500447da6f49ac1914fe24166773360405161036091906105c2565b60405180910390a15b7f264f630d9efa0d07053a31163641d9fcc0adafc9d9e76f1c37c2ce3a558d2c52333460405161039a9291906108ae565b60405180910390a1565b5f5f9054906101000a900473ffffffffffffffffffffffffffffffffffffffff1681565b600180546103d590610902565b80601f016020809104026020016040519081016040528092919081815260200182805461040190610902565b801561044c5780601f106104235761010080835404028352916020019161044c565b820191905f5260205f20905b81548152906001019060200180831161042f57829003601f168201915b505050505081565b5f5f5f5f476004546003805490505f5f9054906101000a900473ffffffffffffffffffffffffffffffffffffffff16935093509350935090919293565b5f5f5f90505b600380549050811015610529578273ffffffffffffffffffffffffffffffffffffffff16600382815481106104cf576104ce610932565b5b905f5260205f20015f9054906101000a900473ffffffffffffffffffffffffffffffffffffffff1673ffffffffffffffffffffffffffffffffffffffff160361051c57600191505061052e565b8080600101915050610497565b505f90505b919050565b60038181548110610542575f80fd5b905f5260205f20015f915054906101000a900473ffffffffffffffffffffffffffffffffffffffff1681565b6002602052805f5260405f205f915090505481565b5f73ffffffffffffffffffffffffffffffffffffffff82169050919050565b5f6105ac82610583565b9050919050565b6105bc816105a2565b82525050565b5f6020820190506105d55f8301846105b3565b92915050565b5f81519050919050565b5f82825260208201905092915050565b8281835e5f83830152505050565b5f601f19601f8301169050919050565b5f61061d826105db565b61062781856105e5565b93506106378185602086016105f5565b61064081610603565b840191505092915050565b5f6020820190508181035f8301526106638184610613565b905092915050565b5f819050919050565b61067d8161066b565b82525050565b5f6080820190506106965f830187610674565b6106a36020830186610674565b6106b06040830185610674565b6106bd60608301846105b3565b95945050505050565b5f5ffd5b6106d3816105a2565b81146106dd575f5ffd5b50565b5f813590506106ee816106ca565b92915050565b5f60208284031215610709576107086106c6565b5b5f610716848285016106e0565b91505092915050565b5f8115159050919050565b6107338161071f565b82525050565b5f60208201905061074c5f83018461072a565b92915050565b61075b8161066b565b8114610765575f5ffd5b50565b5f8135905061077681610752565b92915050565b5f60208284031215610791576107906106c6565b5b5f61079e84828501610768565b91505092915050565b5f6020820190506107ba5f830184610674565b92915050565b7f446f6e6174696f6e206d75737420636f6e7461696e20736f6d6520616d6f756e5f8201527f74206f6620657468657200000000000000000000000000000000000000000000602082015250565b5f61081a602a836105e5565b9150610825826107c0565b604082019050919050565b5f6020820190508181035f8301526108478161080e565b9050919050565b7f4e487b71000000000000000000000000000000000000000000000000000000005f52601160045260245ffd5b5f6108858261066b565b91506108908361066b565b92508282019050808211156108a8576108a761084e565b5b92915050565b5f6040820190506108c15f8301856105b3565b6108ce6020830184610674565b9392505050565b7f4e487b71000000000000000000000000000000000000000000000000000000005f52602260045260245ffd5b5f600282049050600182168061091957607f821691505b60208210810361092c5761092b6108d5565b5b50919050565b7f4e487b71000000000000000000000000000000000000000000000000000000005f52603260045260245ffdfea2646970667358221220aa83485e7041c6ecb8b6337cf9afee9fe304dd0e74eb9ce19d0cf77479eeacf964736f6c634300081e0033",
			"opcodes": "PUSH1 0x80 PUSH1 0x40 MSTORE CALLVALUE DUP1 ISZERO PUSH2 0xF JUMPI PUSH0 PUSH0 REVERT JUMPDEST POP PUSH1 0x40 MLOAD PUSH2 0xF69 CODESIZE SUB DUP1 PUSH2 0xF69 DUP4 CODECOPY DUP2 DUP2 ADD PUSH1 0x40 MSTORE DUP2 ADD SWAP1 PUSH2 0x31 SWAP2 SWAP1 PUSH2 0x28E JUMP JUMPDEST DUP2 PUSH0 PUSH0 PUSH2 0x100 EXP DUP2 SLOAD DUP2 PUSH20 0xFFFFFFFFFFFFFFFFFFFFFFFFFFFFFFFFFFFFFFFF MUL NOT AND SWAP1 DUP4 PUSH20 0xFFFFFFFFFFFFFFFFFFFFFFFFFFFFFFFFFFFFFFFF AND MUL OR SWAP1 SSTORE POP DUP1 PUSH1 0x1 SWAP1 DUP2 PUSH2 0x7F SWAP2 SWAP1 PUSH2 0x4F8 JUMP JUMPDEST POP PUSH1 0x3 DUP3 SWAP1 DUP1 PUSH1 0x1 DUP2 SLOAD ADD DUP1 DUP3 SSTORE DUP1 SWAP2 POP POP PUSH1 0x1 SWAP1 SUB SWAP1 PUSH0 MSTORE PUSH1 0x20 PUSH0 KECCAK256 ADD PUSH0 SWAP1 SWAP2 SWAP1 SWAP2 SWAP1 SWAP2 PUSH2 0x100 EXP DUP2 SLOAD DUP2 PUSH20 0xFFFFFFFFFFFFFFFFFFFFFFFFFFFFFFFFFFFFFFFF MUL NOT AND SWAP1 DUP4 PUSH20 0xFFFFFFFFFFFFFFFFFFFFFFFFFFFFFFFFFFFFFFFF AND MUL OR SWAP1 SSTORE POP POP POP PUSH2 0x5C7 JUMP JUMPDEST PUSH0 PUSH1 0x40 MLOAD SWAP1 POP SWAP1 JUMP JUMPDEST PUSH0 PUSH0 REVERT JUMPDEST PUSH0 PUSH0 REVERT JUMPDEST PUSH0 PUSH20 0xFFFFFFFFFFFFFFFFFFFFFFFFFFFFFFFFFFFFFFFF DUP3 AND SWAP1 POP SWAP2 SWAP1 POP JUMP JUMPDEST PUSH0 PUSH2 0x121 DUP3 PUSH2 0xF8 JUMP JUMPDEST SWAP1 POP SWAP2 SWAP1 POP JUMP JUMPDEST PUSH2 0x131 DUP2 PUSH2 0x117 JUMP JUMPDEST DUP2 EQ PUSH2 0x13B JUMPI PUSH0 PUSH0 REVERT JUMPDEST POP JUMP JUMPDEST PUSH0 DUP2 MLOAD SWAP1 POP PUSH2 0x14C DUP2 PUSH2 0x128 JUMP JUMPDEST SWAP3 SWAP2 POP POP JUMP JUMPDEST PUSH0 PUSH0 REVERT JUMPDEST PUSH0 PUSH0 REVERT JUMPDEST PUSH0 PUSH1 0x1F NOT PUSH1 0x1F DUP4 ADD AND SWAP1 POP SWAP2 SWAP1 POP JUMP JUMPDEST PUSH32 0x4E487B7100000000000000000000000000000000000000000000000000000000 PUSH0 MSTORE PUSH1 0x41 PUSH1 0x4 MSTORE PUSH1 0x24 PUSH0 REVERT JUMPDEST PUSH2 0x1A0 DUP3 PUSH2 0x15A JUMP JUMPDEST DUP2 ADD DUP2 DUP2 LT PUSH8 0xFFFFFFFFFFFFFFFF DUP3 GT OR ISZERO PUSH2 0x1BF JUMPI PUSH2 0x1BE PUSH2 0x16A JUMP JUMPDEST JUMPDEST DUP1 PUSH1 0x40 MSTORE POP POP POP JUMP JUMPDEST PUSH0 PUSH2 0x1D1 PUSH2 0xE7 JUMP JUMPDEST SWAP1 POP PUSH2 0x1DD DUP3 DUP3 PUSH2 0x197 JUMP JUMPDEST SWAP2 SWAP1 POP JUMP JUMPDEST PUSH0 PUSH8 0xFFFFFFFFFFFFFFFF DUP3 GT ISZERO PUSH2 0x1FC JUMPI PUSH2 0x1FB PUSH2 0x16A JUMP JUMPDEST JUMPDEST PUSH2 0x205 DUP3 PUSH2 0x15A JUMP JUMPDEST SWAP1 POP PUSH1 0x20 DUP2 ADD SWAP1 POP SWAP2 SWAP1 POP JUMP JUMPDEST DUP3 DUP2 DUP4 MCOPY PUSH0 DUP4 DUP4 ADD MSTORE POP POP POP JUMP JUMPDEST PUSH0 PUSH2 0x232 PUSH2 0x22D DUP5 PUSH2 0x1E2 JUMP JUMPDEST PUSH2 0x1C8 JUMP JUMPDEST SWAP1 POP DUP3 DUP2 MSTORE PUSH1 0x20 DUP2 ADD DUP5 DUP5 DUP5 ADD GT ISZERO PUSH2 0x24E JUMPI PUSH2 0x24D PUSH2 0x156 JUMP JUMPDEST JUMPDEST PUSH2 0x259 DUP5 DUP3 DUP6 PUSH2 0x212 JUMP JUMPDEST POP SWAP4 SWAP3 POP POP POP JUMP JUMPDEST PUSH0 DUP3 PUSH1 0x1F DUP4 ADD SLT PUSH2 0x275 JUMPI PUSH2 0x274 PUSH2 0x152 JUMP JUMPDEST JUMPDEST DUP2 MLOAD PUSH2 0x285 DUP5 DUP3 PUSH1 0x20 DUP7 ADD PUSH2 0x220 JUMP JUMPDEST SWAP2 POP POP SWAP3 SWAP2 POP POP JUMP JUMPDEST PUSH0 PUSH0 PUSH1 0x40 DUP4 DUP6 SUB SLT ISZERO PUSH2 0x2A4 JUMPI PUSH2 0x2A3 PUSH2 0xF0 JUMP JUMPDEST JUMPDEST PUSH0 PUSH2 0x2B1 DUP6 DUP3 DUP7 ADD PUSH2 0x13E JUMP JUMPDEST SWAP3 POP POP PUSH1 0x20 DUP4 ADD MLOAD PUSH8 0xFFFFFFFFFFFFFFFF DUP2 GT ISZERO PUSH2 0x2D2 JUMPI PUSH2 0x2D1 PUSH2 0xF4 JUMP JUMPDEST JUMPDEST PUSH2 0x2DE DUP6 DUP3 DUP7 ADD PUSH2 0x261 JUMP JUMPDEST SWAP2 POP POP SWAP3 POP SWAP3 SWAP1 POP JUMP JUMPDEST PUSH0 DUP2 MLOAD SWAP1 POP SWAP2 SWAP1 POP JUMP JUMPDEST PUSH32 0x4E487B7100000000000000000000000000000000000000000000000000000000 PUSH0 MSTORE PUSH1 0x22 PUSH1 0x4 MSTORE PUSH1 0x24 PUSH0 REVERT JUMPDEST PUSH0 PUSH1 0x2 DUP3 DIV SWAP1 POP PUSH1 0x1 DUP3 AND DUP1 PUSH2 0x336 JUMPI PUSH1 0x7F DUP3 AND SWAP2 POP JUMPDEST PUSH1 0x20 DUP3 LT DUP2 SUB PUSH2 0x349 JUMPI PUSH2 0x348 PUSH2 0x2F2 JUMP JUMPDEST JUMPDEST POP SWAP2 SWAP1 POP JUMP JUMPDEST PUSH0 DUP2 SWAP1 POP DUP2 PUSH0 MSTORE PUSH1 0x20 PUSH0 KECCAK256 SWAP1 POP SWAP2 SWAP1 POP JUMP JUMPDEST PUSH0 PUSH1 0x20 PUSH1 0x1F DUP4 ADD DIV SWAP1 POP SWAP2 SWAP1 POP JUMP JUMPDEST PUSH0 DUP3 DUP3 SHL SWAP1 POP SWAP3 SWAP2 POP POP JUMP JUMPDEST PUSH0 PUSH1 0x8 DUP4 MUL PUSH2 0x3AB PUSH32 0xFFFFFFFFFFFFFFFFFFFFFFFFFFFFFFFFFFFFFFFFFFFFFFFFFFFFFFFFFFFFFFFF DUP3 PUSH2 0x370 JUMP JUMPDEST PUSH2 0x3B5 DUP7 DUP4 PUSH2 0x370 JUMP JUMPDEST SWAP6 POP DUP1 NOT DUP5 AND SWAP4 POP DUP1 DUP7 AND DUP5 OR SWAP3 POP POP POP SWAP4 SWAP3 POP POP POP JUMP JUMPDEST PUSH0 DUP2 SWAP1 POP SWAP2 SWAP1 POP JUMP JUMPDEST PUSH0 DUP2 SWAP1 POP SWAP2 SWAP1 POP JUMP JUMPDEST PUSH0 PUSH2 0x3F9 PUSH2 0x3F4 PUSH2 0x3EF DUP5 PUSH2 0x3CD JUMP JUMPDEST PUSH2 0x3D6 JUMP JUMPDEST PUSH2 0x3CD JUMP JUMPDEST SWAP1 POP SWAP2 SWAP1 POP JUMP JUMPDEST PUSH0 DUP2 SWAP1 POP SWAP2 SWAP1 POP JUMP JUMPDEST PUSH2 0x412 DUP4 PUSH2 0x3DF JUMP JUMPDEST PUSH2 0x426 PUSH2 0x41E DUP3 PUSH2 0x400 JUMP JUMPDEST DUP5 DUP5 SLOAD PUSH2 0x37C JUMP JUMPDEST DUP3 SSTORE POP POP POP POP JUMP JUMPDEST PUSH0 PUSH0 SWAP1 POP SWAP1 JUMP JUMPDEST PUSH2 0x43D PUSH2 0x42E JUMP JUMPDEST PUSH2 0x448 DUP2 DUP5 DUP5 PUSH2 0x409 JUMP JUMPDEST POP POP POP JUMP JUMPDEST JUMPDEST DUP2 DUP2 LT ISZERO PUSH2 0x46B JUMPI PUSH2 0x460 PUSH0 DUP3 PUSH2 0x435 JUMP JUMPDEST PUSH1 0x1 DUP2 ADD SWAP1 POP PUSH2 0x44E JUMP JUMPDEST POP POP JUMP JUMPDEST PUSH1 0x1F DUP3 GT ISZERO PUSH2 0x4B0 JUMPI PUSH2 0x481 DUP2 PUSH2 0x34F JUMP JUMPDEST PUSH2 0x48A DUP5 PUSH2 0x361 JUMP JUMPDEST DUP2 ADD PUSH1 0x20 DUP6 LT ISZERO PUSH2 0x499 JUMPI DUP2 SWAP1 POP JUMPDEST PUSH2 0x4AD PUSH2 0x4A5 DUP6 PUSH2 0x361 JUMP JUMPDEST DUP4 ADD DUP3 PUSH2 0x44D JUMP JUMPDEST POP POP JUMPDEST POP POP POP JUMP JUMPDEST PUSH0 DUP3 DUP3 SHR SWAP1 POP SWAP3 SWAP2 POP POP JUMP JUMPDEST PUSH0 PUSH2 0x4D0 PUSH0 NOT DUP5 PUSH1 0x8 MUL PUSH2 0x4B5 JUMP JUMPDEST NOT DUP1 DUP4 AND SWAP2 POP POP SWAP3 SWAP2 POP POP JUMP JUMPDEST PUSH0 PUSH2 0x4E8 DUP4 DUP4 PUSH2 0x4C1 JUMP JUMPDEST SWAP2 POP DUP3 PUSH1 0x2 MUL DUP3 OR SWAP1 POP SWAP3 SWAP2 POP POP JUMP JUMPDEST PUSH2 0x501 DUP3 PUSH2 0x2E8 JUMP JUMPDEST PUSH8 0xFFFFFFFFFFFFFFFF DUP2 GT ISZERO PUSH2 0x51A JUMPI PUSH2 0x519 PUSH2 0x16A JUMP JUMPDEST JUMPDEST PUSH2 0x524 DUP3 SLOAD PUSH2 0x31F JUMP JUMPDEST PUSH2 0x52F DUP3 DUP3 DUP6 PUSH2 0x46F JUMP JUMPDEST PUSH0 PUSH1 0x20 SWAP1 POP PUSH1 0x1F DUP4 GT PUSH1 0x1 DUP2 EQ PUSH2 0x560 JUMPI PUSH0 DUP5 ISZERO PUSH2 0x54E JUMPI DUP3 DUP8 ADD MLOAD SWAP1 POP JUMPDEST PUSH2 0x558 DUP6 DUP3 PUSH2 0x4DD JUMP JUMPDEST DUP7 SSTORE POP PUSH2 0x5BF JUMP JUMPDEST PUSH1 0x1F NOT DUP5 AND PUSH2 0x56E DUP7 PUSH2 0x34F JUMP JUMPDEST PUSH0 JUMPDEST DUP3 DUP2 LT ISZERO PUSH2 0x595 JUMPI DUP5 DUP10 ADD MLOAD DUP3 SSTORE PUSH1 0x1 DUP3 ADD SWAP2 POP PUSH1 0x20 DUP6 ADD SWAP5 POP PUSH1 0x20 DUP2 ADD SWAP1 POP PUSH2 0x570 JUMP JUMPDEST DUP7 DUP4 LT ISZERO PUSH2 0x5B2 JUMPI DUP5 DUP10 ADD MLOAD PUSH2 0x5AE PUSH1 0x1F DUP10 AND DUP3 PUSH2 0x4C1 JUMP JUMPDEST DUP4 SSTORE POP JUMPDEST PUSH1 0x1 PUSH1 0x2 DUP9 MUL ADD DUP9 SSTORE POP POP POP JUMPDEST POP POP POP POP POP POP JUMP JUMPDEST PUSH2 0x995 DUP1 PUSH2 0x5D4 PUSH0 CODECOPY PUSH0 RETURN INVALID PUSH1 0x80 PUSH1 0x40 MSTORE PUSH1 0x4 CALLDATASIZE LT PUSH2 0x73 JUMPI PUSH0 CALLDATALOAD PUSH1 0xE0 SHR DUP1 PUSH4 0x6D218E48 GT PUSH2 0x4D JUMPI DUP1 PUSH4 0x6D218E48 EQ PUSH2 0x107 JUMPI DUP1 PUSH4 0xD3650FB8 EQ PUSH2 0x143 JUMPI DUP1 PUSH4 0xED88C68E EQ PUSH2 0x17F JUMPI DUP1 PUSH4 0xF4374AEA EQ PUSH2 0x189 JUMPI PUSH2 0x82 JUMP JUMPDEST DUP1 PUSH4 0x2D05D3F EQ PUSH2 0x86 JUMPI DUP1 PUSH4 0x724FDA9 EQ PUSH2 0xB0 JUMPI DUP1 PUSH4 0x4051DDAC EQ PUSH2 0xDA JUMPI PUSH2 0x82 JUMP JUMPDEST CALLDATASIZE PUSH2 0x82 JUMPI PUSH2 0x80 PUSH2 0x1C5 JUMP JUMPDEST STOP JUMPDEST PUSH0 PUSH0 REVERT JUMPDEST CALLVALUE DUP1 ISZERO PUSH2 0x91 JUMPI PUSH0 PUSH0 REVERT JUMPDEST POP PUSH2 0x9A PUSH2 0x3A4 JUMP JUMPDEST PUSH1 0x40 MLOAD PUSH2 0xA7 SWAP2 SWAP1 PUSH2 0x5C2 JUMP JUMPDEST PUSH1 0x40 MLOAD DUP1 SWAP2 SUB SWAP1 RETURN JUMPDEST CALLVALUE DUP1 ISZERO PUSH2 0xBB JUMPI PUSH0 PUSH0 REVERT JUMPDEST POP PUSH2 0xC4 PUSH2 0x3C8 JUMP JUMPDEST PUSH1 0x40 MLOAD PUSH2 0xD1 SWAP2 SWAP1 PUSH2 0x64B JUMP JUMPDEST PUSH1 0x40 MLOAD DUP1 SWAP2 SUB SWAP1 RETURN JUMPDEST CALLVALUE DUP1 ISZERO PUSH2 0xE5 JUMPI PUSH0 PUSH0 REVERT JUMPDEST POP PUSH2 0xEE PUSH2 0x454 JUMP JUMPDEST PUSH1 0x40 MLOAD PUSH2 0xFE SWAP5 SWAP4 SWAP3 SWAP2 SWAP1 PUSH2 0x683 JUMP JUMPDEST PUSH1 0x40 MLOAD DUP1 SWAP2 SUB SWAP1 RETURN JUMPDEST CALLVALUE DUP1 ISZERO PUSH2 0x112 JUMPI PUSH0 PUSH0 REVERT JUMPDEST POP PUSH2 0x12D PUSH1 0x4 DUP1 CALLDATASIZE SUB DUP2 ADD SWAP1 PUSH2 0x128 SWAP2 SWAP1 PUSH2 0x6F4 JUMP JUMPDEST PUSH2 0x491 JUMP JUMPDEST PUSH1 0x40 MLOAD PUSH2 0x13A SWAP2 SWAP1 PUSH2 0x739 JUMP JUMPDEST PUSH1 0x40 MLOAD DUP1 SWAP2 SUB SWAP1 RETURN JUMPDEST CALLVALUE DUP1 ISZERO PUSH2 0x14E JUMPI PUSH0 PUSH0 REVERT JUMPDEST POP PUSH2 0x169 PUSH1 0x4 DUP1 CALLDATASIZE SUB DUP2 ADD SWAP1 PUSH2 0x164 SWAP2 SWAP1 PUSH2 0x77C JUMP JUMPDEST PUSH2 0x533 JUMP JUMPDEST PUSH1 0x40 MLOAD PUSH2 0x176 SWAP2 SWAP1 PUSH2 0x5C2 JUMP JUMPDEST PUSH1 0x40 MLOAD DUP1 SWAP2 SUB SWAP1 RETURN JUMPDEST PUSH2 0x187 PUSH2 0x1C5 JUMP JUMPDEST STOP JUMPDEST CALLVALUE DUP1 ISZERO PUSH2 0x194 JUMPI PUSH0 PUSH0 REVERT JUMPDEST POP PUSH2 0x1AF PUSH1 0x4 DUP1 CALLDATASIZE SUB DUP2 ADD SWAP1 PUSH2 0x1AA SWAP2 SWAP1 PUSH2 0x6F4 JUMP JUMPDEST PUSH2 0x56E JUMP JUMPDEST PUSH1 0x40 MLOAD PUSH2 0x1BC SWAP2 SWAP1 PUSH2 0x7A7 JUMP JUMPDEST PUSH1 0x40 MLOAD DUP1 SWAP2 SUB SWAP1 RETURN JUMPDEST PUSH0 CALLVALUE GT PUSH2 0x207 JUMPI PUSH1 0x40 MLOAD PUSH32 0x8C379A000000000000000000000000000000000000000000000000000000000 DUP2 MSTORE PUSH1 0x4 ADD PUSH2 0x1FE SWAP1 PUSH2 0x830 JUMP JUMPDEST PUSH1 0x40 MLOAD DUP1 SWAP2 SUB SWAP1 REVERT JUMPDEST CALLVALUE PUSH1 0x2 PUSH0 CALLER PUSH20 0xFFFFFFFFFFFFFFFFFFFFFFFFFFFFFFFFFFFFFFFF AND PUSH20 0xFFFFFFFFFFFFFFFFFFFFFFFFFFFFFFFFFFFFFFFF AND DUP2 MSTORE PUSH1 0x20 ADD SWAP1 DUP2 MSTORE PUSH1 0x20 ADD PUSH0 KECCAK256 PUSH0 DUP3 DUP3 SLOAD PUSH2 0x253 SWAP2 SWAP1 PUSH2 0x87B JUMP JUMPDEST SWAP3 POP POP DUP2 SWAP1 SSTORE POP CALLVALUE PUSH1 0x4 PUSH0 DUP3 DUP3 SLOAD PUSH2 0x26B SWAP2 SWAP1 PUSH2 0x87B JUMP JUMPDEST SWAP3 POP POP DUP2 SWAP1 SSTORE POP PUSH7 0x110D9316EC000 PUSH1 0x2 PUSH0 CALLER PUSH20 0xFFFFFFFFFFFFFFFFFFFFFFFFFFFFFFFFFFFFFFFF AND PUSH20 0xFFFFFFFFFFFFFFFFFFFFFFFFFFFFFFFFFFFFFFFF AND DUP2 MSTORE PUSH1 0x20 ADD SWAP1 DUP2 MSTORE PUSH1 0x20 ADD PUSH0 KECCAK256 SLOAD LT ISZERO DUP1 ISZERO PUSH2 0x2CC JUMPI POP PUSH2 0x2CA CALLER PUSH2 0x491 JUMP JUMPDEST ISZERO JUMPDEST ISZERO PUSH2 0x369 JUMPI PUSH1 0x3 CALLER SWAP1 DUP1 PUSH1 0x1 DUP2 SLOAD ADD DUP1 DUP3 SSTORE DUP1 SWAP2 POP POP PUSH1 0x1 SWAP1 SUB SWAP1 PUSH0 MSTORE PUSH1 0x20 PUSH0 KECCAK256 ADD PUSH0 SWAP1 SWAP2 SWAP1 SWAP2 SWAP1 SWAP2 PUSH2 0x100 EXP DUP2 SLOAD DUP2 PUSH20 0xFFFFFFFFFFFFFFFFFFFFFFFFFFFFFFFFFFFFFFFF MUL NOT AND SWAP1 DUP4 PUSH20 0xFFFFFFFFFFFFFFFFFFFFFFFFFFFFFFFFFFFFFFFF AND MUL OR SWAP1 SSTORE POP PUSH32 0x8AA8AD4B7D42F7C217D8D03DCE49E363E9B44500447DA6F49AC1914FE2416677 CALLER PUSH1 0x40 MLOAD PUSH2 0x360 SWAP2 SWAP1 PUSH2 0x5C2 JUMP JUMPDEST PUSH1 0x40 MLOAD DUP1 SWAP2 SUB SWAP1 LOG1 JUMPDEST PUSH32 0x264F630D9EFA0D07053A31163641D9FCC0ADAFC9D9E76F1C37C2CE3A558D2C52 CALLER CALLVALUE PUSH1 0x40 MLOAD PUSH2 0x39A SWAP3 SWAP2 SWAP1 PUSH2 0x8AE JUMP JUMPDEST PUSH1 0x40 MLOAD DUP1 SWAP2 SUB SWAP1 LOG1 JUMP JUMPDEST PUSH0 PUSH0 SWAP1 SLOAD SWAP1 PUSH2 0x100 EXP SWAP1 DIV PUSH20 0xFFFFFFFFFFFFFFFFFFFFFFFFFFFFFFFFFFFFFFFF AND DUP2 JUMP JUMPDEST PUSH1 0x1 DUP1 SLOAD PUSH2 0x3D5 SWAP1 PUSH2 0x902 JUMP JUMPDEST DUP1 PUSH1 0x1F ADD PUSH1 0x20 DUP1 SWAP2 DIV MUL PUSH1 0x20 ADD PUSH1 0x40 MLOAD SWAP1 DUP2 ADD PUSH1 0x40 MSTORE DUP1 SWAP3 SWAP2 SWAP1 DUP2 DUP2 MSTORE PUSH1 0x20 ADD DUP3 DUP1 SLOAD PUSH2 0x401 SWAP1 PUSH2 0x902 JUMP JUMPDEST DUP1 ISZERO PUSH2 0x44C JUMPI DUP1 PUSH1 0x1F LT PUSH2 0x423 JUMPI PUSH2 0x100 DUP1 DUP4 SLOAD DIV MUL DUP4 MSTORE SWAP2 PUSH1 0x20 ADD SWAP2 PUSH2 0x44C JUMP JUMPDEST DUP3 ADD SWAP2 SWAP1 PUSH0 MSTORE PUSH1 0x20 PUSH0 KECCAK256 SWAP1 JUMPDEST DUP2 SLOAD DUP2 MSTORE SWAP1 PUSH1 0x1 ADD SWAP1 PUSH1 0x20 ADD DUP1 DUP4 GT PUSH2 0x42F JUMPI DUP3 SWAP1 SUB PUSH1 0x1F AND DUP3 ADD SWAP2 JUMPDEST POP POP POP POP POP DUP2 JUMP JUMPDEST PUSH0 PUSH0 PUSH0 PUSH0 SELFBALANCE PUSH1 0x4 SLOAD PUSH1 0x3 DUP1 SLOAD SWAP1 POP PUSH0 PUSH0 SWAP1 SLOAD SWAP1 PUSH2 0x100 EXP SWAP1 DIV PUSH20 0xFFFFFFFFFFFFFFFFFFFFFFFFFFFFFFFFFFFFFFFF AND SWAP4 POP SWAP4 POP SWAP4 POP SWAP4 POP SWAP1 SWAP2 SWAP3 SWAP4 JUMP JUMPDEST PUSH0 PUSH0 PUSH0 SWAP1 POP JUMPDEST PUSH1 0x3 DUP1 SLOAD SWAP1 POP DUP2 LT ISZERO PUSH2 0x529 JUMPI DUP3 PUSH20 0xFFFFFFFFFFFFFFFFFFFFFFFFFFFFFFFFFFFFFFFF AND PUSH1 0x3 DUP3 DUP2 SLOAD DUP2 LT PUSH2 0x4CF JUMPI PUSH2 0x4CE PUSH2 0x932 JUMP JUMPDEST JUMPDEST SWAP1 PUSH0 MSTORE PUSH1 0x20 PUSH0 KECCAK256 ADD PUSH0 SWAP1 SLOAD SWAP1 PUSH2 0x100 EXP SWAP1 DIV PUSH20 0xFFFFFFFFFFFFFFFFFFFFFFFFFFFFFFFFFFFFFFFF AND PUSH20 0xFFFFFFFFFFFFFFFFFFFFFFFFFFFFFFFFFFFFFFFF AND SUB PUSH2 0x51C JUMPI PUSH1 0x1 SWAP2 POP POP PUSH2 0x52E JUMP JUMPDEST DUP1 DUP1 PUSH1 0x1 ADD SWAP2 POP POP PUSH2 0x497 JUMP JUMPDEST POP PUSH0 SWAP1 POP JUMPDEST SWAP2 SWAP1 POP JUMP JUMPDEST PUSH1 0x3 DUP2 DUP2 SLOAD DUP2 LT PUSH2 0x542 JUMPI PUSH0 DUP1 REVERT JUMPDEST SWAP1 PUSH0 MSTORE PUSH1 0x20 PUSH0 KECCAK256 ADD PUSH0 SWAP2 POP SLOAD SWAP1 PUSH2 0x100 EXP SWAP1 DIV PUSH20 0xFFFFFFFFFFFFFFFFFFFFFFFFFFFFFFFFFFFFFFFF AND DUP2 JUMP JUMPDEST PUSH1 0x2 PUSH1 0x20 MSTORE DUP1 PUSH0 MSTORE PUSH1 0x40 PUSH0 KECCAK256 PUSH0 SWAP2 POP SWAP1 POP SLOAD DUP2 JUMP JUMPDEST PUSH0 PUSH20 0xFFFFFFFFFFFFFFFFFFFFFFFFFFFFFFFFFFFFFFFF DUP3 AND SWAP1 POP SWAP2 SWAP1 POP JUMP JUMPDEST PUSH0 PUSH2 0x5AC DUP3 PUSH2 0x583 JUMP JUMPDEST SWAP1 POP SWAP2 SWAP1 POP JUMP JUMPDEST PUSH2 0x5BC DUP2 PUSH2 0x5A2 JUMP JUMPDEST DUP3 MSTORE POP POP JUMP JUMPDEST PUSH0 PUSH1 0x20 DUP3 ADD SWAP1 POP PUSH2 0x5D5 PUSH0 DUP4 ADD DUP5 PUSH2 0x5B3 JUMP JUMPDEST SWAP3 SWAP2 POP POP JUMP JUMPDEST PUSH0 DUP2 MLOAD SWAP1 POP SWAP2 SWAP1 POP JUMP JUMPDEST PUSH0 DUP3 DUP3 MSTORE PUSH1 0x20 DUP3 ADD SWAP1 POP SWAP3 SWAP2 POP POP JUMP JUMPDEST DUP3 DUP2 DUP4 MCOPY PUSH0 DUP4 DUP4 ADD MSTORE POP POP POP JUMP JUMPDEST PUSH0 PUSH1 0x1F NOT PUSH1 0x1F DUP4 ADD AND SWAP1 POP SWAP2 SWAP1 POP JUMP JUMPDEST PUSH0 PUSH2 0x61D DUP3 PUSH2 0x5DB JUMP JUMPDEST PUSH2 0x627 DUP2 DUP6 PUSH2 0x5E5 JUMP JUMPDEST SWAP4 POP PUSH2 0x637 DUP2 DUP6 PUSH1 0x20 DUP7 ADD PUSH2 0x5F5 JUMP JUMPDEST PUSH2 0x640 DUP2 PUSH2 0x603 JUMP JUMPDEST DUP5 ADD SWAP2 POP POP SWAP3 SWAP2 POP POP JUMP JUMPDEST PUSH0 PUSH1 0x20 DUP3 ADD SWAP1 POP DUP2 DUP2 SUB PUSH0 DUP4 ADD MSTORE PUSH2 0x663 DUP2 DUP5 PUSH2 0x613 JUMP JUMPDEST SWAP1 POP SWAP3 SWAP2 POP POP JUMP JUMPDEST PUSH0 DUP2 SWAP1 POP SWAP2 SWAP1 POP JUMP JUMPDEST PUSH2 0x67D DUP2 PUSH2 0x66B JUMP JUMPDEST DUP3 MSTORE POP POP JUMP JUMPDEST PUSH0 PUSH1 0x80 DUP3 ADD SWAP1 POP PUSH2 0x696 PUSH0 DUP4 ADD DUP8 PUSH2 0x674 JUMP JUMPDEST PUSH2 0x6A3 PUSH1 0x20 DUP4 ADD DUP7 PUSH2 0x674 JUMP JUMPDEST PUSH2 0x6B0 PUSH1 0x40 DUP4 ADD DUP6 PUSH2 0x674 JUMP JUMPDEST PUSH2 0x6BD PUSH1 0x60 DUP4 ADD DUP5 PUSH2 0x5B3 JUMP JUMPDEST SWAP6 SWAP5 POP POP POP POP POP JUMP JUMPDEST PUSH0 PUSH0 REVERT JUMPDEST PUSH2 0x6D3 DUP2 PUSH2 0x5A2 JUMP JUMPDEST DUP2 EQ PUSH2 0x6DD JUMPI PUSH0 PUSH0 REVERT JUMPDEST POP JUMP JUMPDEST PUSH0 DUP2 CALLDATALOAD SWAP1 POP PUSH2 0x6EE DUP2 PUSH2 0x6CA JUMP JUMPDEST SWAP3 SWAP2 POP POP JUMP JUMPDEST PUSH0 PUSH1 0x20 DUP3 DUP5 SUB SLT ISZERO PUSH2 0x709 JUMPI PUSH2 0x708 PUSH2 0x6C6 JUMP JUMPDEST JUMPDEST PUSH0 PUSH2 0x716 DUP5 DUP3 DUP6 ADD PUSH2 0x6E0 JUMP JUMPDEST SWAP2 POP POP SWAP3 SWAP2 POP POP JUMP JUMPDEST PUSH0 DUP2 ISZERO ISZERO SWAP1 POP SWAP2 SWAP1 POP JUMP JUMPDEST PUSH2 0x733 DUP2 PUSH2 0x71F JUMP JUMPDEST DUP3 MSTORE POP POP JUMP JUMPDEST PUSH0 PUSH1 0x20 DUP3 ADD SWAP1 POP PUSH2 0x74C PUSH0 DUP4 ADD DUP5 PUSH2 0x72A JUMP JUMPDEST SWAP3 SWAP2 POP POP JUMP JUMPDEST PUSH2 0x75B DUP2 PUSH2 0x66B JUMP JUMPDEST DUP2 EQ PUSH2 0x765 JUMPI PUSH0 PUSH0 REVERT JUMPDEST POP JUMP JUMPDEST PUSH0 DUP2 CALLDATALOAD SWAP1 POP PUSH2 0x776 DUP2 PUSH2 0x752 JUMP JUMPDEST SWAP3 SWAP2 POP POP JUMP JUMPDEST PUSH0 PUSH1 0x20 DUP3 DUP5 SUB SLT ISZERO PUSH2 0x791 JUMPI PUSH2 0x790 PUSH2 0x6C6 JUMP JUMPDEST JUMPDEST PUSH0 PUSH2 0x79E DUP5 DUP3 DUP6 ADD PUSH2 0x768 JUMP JUMPDEST SWAP2 POP POP SWAP3 SWAP2 POP POP JUMP JUMPDEST PUSH0 PUSH1 0x20 DUP3 ADD SWAP1 POP PUSH2 0x7BA PUSH0 DUP4 ADD DUP5 PUSH2 0x674 JUMP JUMPDEST SWAP3 SWAP2 POP POP JUMP JUMPDEST PUSH32 0x446F6E6174696F6E206D75737420636F6E7461696E20736F6D6520616D6F756E PUSH0 DUP3 ADD MSTORE PUSH32 0x74206F6620657468657200000000000000000000000000000000000000000000 PUSH1 0x20 DUP3 ADD MSTORE POP JUMP JUMPDEST PUSH0 PUSH2 0x81A PUSH1 0x2A DUP4 PUSH2 0x5E5 JUMP JUMPDEST SWAP2 POP PUSH2 0x825 DUP3 PUSH2 0x7C0 JUMP JUMPDEST PUSH1 0x40 DUP3 ADD SWAP1 POP SWAP2 SWAP1 POP JUMP JUMPDEST PUSH0 PUSH1 0x20 DUP3 ADD SWAP1 POP DUP2 DUP2 SUB PUSH0 DUP4 ADD MSTORE PUSH2 0x847 DUP2 PUSH2 0x80E JUMP JUMPDEST SWAP1 POP SWAP2 SWAP1 POP JUMP JUMPDEST PUSH32 0x4E487B7100000000000000000000000000000000000000000000000000000000 PUSH0 MSTORE PUSH1 0x11 PUSH1 0x4 MSTORE PUSH1 0x24 PUSH0 REVERT JUMPDEST PUSH0 PUSH2 0x885 DUP3 PUSH2 0x66B JUMP JUMPDEST SWAP2 POP PUSH2 0x890 DUP4 PUSH2 0x66B JUMP JUMPDEST SWAP3 POP DUP3 DUP3 ADD SWAP1 POP DUP1 DUP3 GT ISZERO PUSH2 0x8A8 JUMPI PUSH2 0x8A7 PUSH2 0x84E JUMP JUMPDEST JUMPDEST SWAP3 SWAP2 POP POP JUMP JUMPDEST PUSH0 PUSH1 0x40 DUP3 ADD SWAP1 POP PUSH2 0x8C1 PUSH0 DUP4 ADD DUP6 PUSH2 0x5B3 JUMP JUMPDEST PUSH2 0x8CE PUSH1 0x20 DUP4 ADD DUP5 PUSH2 0x674 JUMP JUMPDEST SWAP4 SWAP3 POP POP POP JUMP JUMPDEST PUSH32 0x4E487B7100000000000000000000000000000000000000000000000000000000 PUSH0 MSTORE PUSH1 0x22 PUSH1 0x4 MSTORE PUSH1 0x24 PUSH0 REVERT JUMPDEST PUSH0 PUSH1 0x2 DUP3 DIV SWAP1 POP PUSH1 0x1 DUP3 AND DUP1 PUSH2 0x919 JUMPI PUSH1 0x7F DUP3 AND SWAP2 POP JUMPDEST PUSH1 0x20 DUP3 LT DUP2 SUB PUSH2 0x92C JUMPI PUSH2 0x92B PUSH2 0x8D5 JUMP JUMPDEST JUMPDEST POP SWAP2 SWAP1 POP JUMP JUMPDEST PUSH32 0x4E487B7100000000000000000000000000000000000000000000000000000000 PUSH0 MSTORE PUSH1 0x32 PUSH1 0x4 MSTORE PUSH1 0x24 PUSH0 REVERT INVALID LOG2 PUSH5 0x6970667358 0x22 SLT KECCAK256 0xAA DUP4 BASEFEE MCOPY PUSH17 0x41C6ECB8B6337CF9AFEE9FE304DD0E74EB SWAP13 RJUMPI 0x9D0C 0xF7 PUSH21 0x79EEACF964736F6C634300081E0033000000000000 "
		},
		"gasEstimates": {
			"creation": {
				"codeDepositCost": "490600",
				"executionCost": "infinite",
				"totalCost": "infinite"
			},
			"external": {
				"approvers(uint256)": "4966",
				"campaignName()": "infinite",
				"creator()": "2508",
				"donate()": "infinite",
				"donorContributions(address)": "2868",
				"getSummary()": "infinite",
				"isApprover(address)": "infinite"
			}
		},
		"methodIdentifiers": {
			"approvers(uint256)": "d3650fb8",
			"campaignName()": "0724fda9",
			"creator()": "02d05d3f",
			"donate()": "ed88c68e",
			"donorContributions(address)": "f4374aea",
			"getSummary()": "4051ddac",
			"isApprover(address)": "6d218e48"
		}
	},
	"abi": [
		{
			"inputs": [
				{
					"internalType": "address",
					"name": "_creator",
					"type": "address"
				},
				{
					"internalType": "string",
					"name": "_campaignName",
					"type": "string"
				}
			],
			"stateMutability": "nonpayable",
			"type": "constructor"
		},
		{
			"anonymous": false,
			"inputs": [
				{
					"indexed": false,
					"internalType": "address",
					"name": "donor",
					"type": "address"
				},
				{
					"indexed": false,
					"internalType": "uint256",
					"name": "amount",
					"type": "uint256"
				}
			],
			"name": "DonationReceived",
			"type": "event"
		},
		{
			"anonymous": false,
			"inputs": [
				{
					"indexed": false,
					"internalType": "address",
					"name": "approver",
					"type": "address"
				}
			],
			"name": "NewApprover",
			"type": "event"
		},
		{
			"inputs": [
				{
					"internalType": "uint256",
					"name": "",
					"type": "uint256"
				}
			],
			"name": "approvers",
			"outputs": [
				{
					"internalType": "address",
					"name": "",
					"type": "address"
				}
			],
			"stateMutability": "view",
			"type": "function"
		},
		{
			"inputs": [],
			"name": "campaignName",
			"outputs": [
				{
					"internalType": "string",
					"name": "",
					"type": "string"
				}
			],
			"stateMutability": "view",
			"type": "function"
		},
		{
			"inputs": [],
			"name": "creator",
			"outputs": [
				{
					"internalType": "address",
					"name": "",
					"type": "address"
				}
			],
			"stateMutability": "view",
			"type": "function"
		},
		{
			"inputs": [],
			"name": "donate",
			"outputs": [],
			"stateMutability": "payable",
			"type": "function"
		},
		{
			"inputs": [
				{
					"internalType": "address",
					"name": "",
					"type": "address"
				}
			],
			"name": "donorContributions",
			"outputs": [
				{
					"internalType": "uint256",
					"name": "",
					"type": "uint256"
				}
			],
			"stateMutability": "view",
			"type": "function"
		},
		{
			"inputs": [],
			"name": "getSummary",
			"outputs": [
				{
					"internalType": "uint256",
					"name": "",
					"type": "uint256"
				},
				{
					"internalType": "uint256",
					"name": "",
					"type": "uint256"
				},
				{
					"internalType": "uint256",
					"name": "",
					"type": "uint256"
				},
				{
					"internalType": "address",
					"name": "",
					"type": "address"
				}
			],
			"stateMutability": "view",
			"type": "function"
		},
		{
			"inputs": [
				{
					"internalType": "address",
					"name": "_address",
					"type": "address"
				}
			],
			"name": "isApprover",
			"outputs": [
				{
					"internalType": "bool",
					"name": "",
					"type": "bool"
				}
			],
			"stateMutability": "view",
			"type": "function"
		},
		{
			"stateMutability": "payable",
			"type": "receive"
		}
	]
}